S0240000666F75725F64696769745F375F7365676D656E745F646973706C61792E7372656397
S11300000C943E000C9450000C9450000C9450003E
S11300100C9450000C9450000C9450000C9450001C
S11300200C9450000C9450000C9450000C9450000C
S11300300C9450000C9450000C9450000C945000FC
S11300400C94CB010C9450000C9450000C94500070
S11300500C9450000C9450000C9450000C945000DC
S11300600C9450000C9450006B016F0173017701E4
S11300707B017F01830187018B018F0111241FBE46
S1130080CFEFD8E0DEBFCDBF21E0A0E0B1E001C0FA
S11300901D92A430B207E1F70E9452000C9475033C
S11300A00C9400008AB1806C8AB98BB18F738BB9C0
S11300B087B18F6387B988B1807C88B984B18FEFA9
S11300C084B995B185B978940E94B9014C9B7CC0E0
S11300D04C990AC0FBCFCA3010F01F5FC0E01A3041
S11300E038F0DF5F10E004C000E0C0E0D0E010E0D2
S11300F0DA3010F00F5FD0E00A3008F456C0D0E0D8
S113010054C080E00E9493018FE99FE00197F1F7CA
S113011000C0000081E00E9493018C2F0E946201C4
S11301208FE99FE00197F1F700C0000080E00E9492
S113013093018FE99FE00197F1F700C0000082E08E
S11301400E949301812F0E9462018FE99FE0019731
S1130150F1F700C0000080E00E9493018FE99FE066
S11301600197F1F700C0000083E00E9493018D2FF6
S11301700E9462018FE99FE00197F1F700C000003F
S113018080E00E9493018FE99FE00197F1F700C09E
S1130190000084E00E949301802F0E9462018FE995
S11301A09FE00197F1F700C0000061E070E080E09B
S11301B090E00E941002882309F4A3CF0E94070252
S11301C0CF5F4C9988CF82CF80E00E9493018FE962
S11301D09FE00197F1F700C0000081E00E949301C5
S11301E080E00E9462018FE99FE00197F1F700C06F
S11301F0000080E00E9493018FE99FE00197F1F7EE
S113020000C0000082E00E94930180E00E9462012D
S11302108FE99FE00197F1F700C0000080E00E94A1
S113022093018FE99FE00197F1F700C0000083E09C
S11302300E94930180E00E9462018FE99FE0019790
S1130240F1F700C0000080E00E9493018FE99FE075
S11302500197F1F700C0000084E00E94930180E060
S11302600E9462018FE99FE00197F1F700C000004E
S11302702DCF80FF02C0409A01C0409881FF02C088
S1130280419A01C0419882FF02C0429A01C042983B
S113029083FF02C0439A01C0439884FF02C0449A7A
S11302A001C0449885FF02C0459A01C0459886FF65
S11302B002C05E9A01C05E98882314F45F9A089580
S11302C05F98089590E08A30910560F5FC01EC5C3C
S11302D0FF4F0C946F038FEE0E94390108958CE256
S11302E00E943901089587EB0E94390108958EEB2D
S11302F00E94390108958CE70E94390108958EED1A
S11303000E94390108958FED0E94390108958CEA05
S11303100E94390108958FEF0E94390108958EEFEC
S11303200E94390108958230A9F028F4882341F00D
S1130330813059F00895833091F08430A9F0089504
S11303402C9A299A2A9A2B9A089529982C9A2A9AAF
S11303502B9A08952A982C9A299A2B9A08952B98C7
S11303602C9A299A2A9A08952C98299A2A9A2B9A8F
S1130370089510920001109201011092020110924E
S1130380030185B5856085BDA89AEEE6F0E080811D
S11303908160808308951F920F920FB60F921124EB
S11303A02F938F939F93AF93BF938091000190916C
S11303B00101A0910201B09103010196A11DB11D9B
S11303C08093000190930101A0930201B093030173
S11303D08091000190910101A0910201B09103016B
S11303E08F3F9F4FAF4FBF4F41F4109200011092C7
S11303F001011092020110920301BF91AF919F91EC
S11304008F912F910F900FBE0F901F9018951092FF
S1130410000110920101109202011092030108954B
S11304208F929F92AF92BF92CF92DF92EF92FF9200
S1130430CF934B015C0160910001709101018091A7
S11304400201909103010E94B80220E030E044E7E9
S113045052E40E9446026B017C01C501B4010E9472
S1130460B8029B01AC01C1E0C701B6010E9446037A
S113047088230CF4C0E08C2FCF91FF90EF90DF9095
S1130480CF90BF90AF909F908F9008950E945A0292
S11304900C940C030E94050358F00E94FE0240F0E5
S11304A029F45F3F29F00C94F50251110C94400398
S11304B00C94FB020E941D0368F39923B1F35523A6
S11304C091F3951B550BBB27AA2762177307840763
S11304D038F09F5F5F4F220F331F441FAA1FA9F3F9
S11304E035D00E2E3AF0E0E832D091505040E695E7
S11304F0001CCAF72BD0FE2F29D0660F771F881F48
S1130500BB1F261737074807AB07B0E809F0BB0B3A
S1130510802DBF01FF2793585F4F3AF09E3F51054E
S113052078F00C94F5020C9440035F3FE4F3983E9A
S1130530D4F3869577956795B795F7959F5FC9F737
S1130540880F911D9695879597F90895E1E0660FB8
S1130550771F881FBB1F621773078407BA0720F031
S1130560621B730B840BBA0BEE1F88F7E09508959A
S1130570E89409C097FB3EF4909580957095619539
S11305807F4F8F4F9F4F9923A9F0F92F96E9BB27EF
S11305909395F695879577956795B795F111F8CF6B
S11305A0FAF4BB0F11F460FF1BC06F5F7F4F8F4FD6
S11305B09F4F16C0882311F096E911C0772321F0CC
S11305C09EE8872F762F05C0662371F096E8862F64
S11305D070E060E02AF09A95660F771F881FDAF7BB
S11305E0880F9695879597F9089597F99F6780E8FE
S11305F070E060E008959FEF80EC089500240A9471
S11306001616170618060906089500240A941216E9
S11306101306140605060895092E0394000C11F41C
S1130620882352F0BB0F40F4BF2B11F460FF04C0C9
S11306306F5F7F4F8F4F9F4F089557FD9058440F22
S1130640551F59F05F3F71F04795880F97FB991F2D
S113065061F09F3F79F087950895121613061406EA
S1130660551FF2CF4695F1DF08C016161706180677
S1130670991FF1CF86957105610508940895E89452
S1130680BB2766277727CB0197F908950E944B0370
S113069008F48FEF0895990F0008550FAA0BE0E8AE
S11306A0FEEF16161706E807F907C0F01216130630
S11306B0E407F50798F0621B730B840B950B39F470
S11306C00A2661F0232B242B252B21F408950A26D6
S11306D009F4A140A6958FEF811D811D0895EE0FA9
S11106E0FF1F0590F491E02D0994F894FFCFCC
S9030000FC
